:020000040000FA
:060000000A128A110C280F
:10000800FE00030EF1000A08F2000A128A115F2DA1
:100018000A128A110F2883134F30FD000530FE00A5
:10002800AE30FF00403084000A128A119025B101D9
:10003800B201B301B401B501B601B701B801B90104
:10004800BA01BB01BC01BD01BE01BF01F801F90144
:10005800FA0183010A128A11FA2B831203133E084C
:1000680003194628B801B701BE010A30C300A2002F
:100078002208C4001430A2002208C2001E30A200C8
:100088002208C1000130A2002208B807C83038028F
:10009800031C08000130A2002208B7070A30370203
:1000A800031C5B28B7010130A2002208C007FF30FB
:1000B800A2002208C407FF30A2002208C307FF30AD
:1000C800A2002208C207FF30A2002208C107B80117
:1000D80005304002031877284008A200A30122082F
:1000E800A50023087A280130A5000030A6002508BD
:1000F800A2002208C000E0280A30A2002208B600A8
:100108000A30A2002208B5001430A2002208B40068
:100118001E30A2002208B3004C30B1040230B204F1
:100128004C30AB280A30A2002208B5001E30A200CD
:100138002208B6000A30A2002208B4001430A20037
:100148002208B3006130B1040230B2046130B10555
:10015800F230DD280A30A2002208B4001430A200D0
:100168002208B6001E30A2002208B5000A30A200FC
:100178002208B3000930B1040330B2040930B105D4
:10018800F330DD280A30A2002208B3001430A200A0
:100198002208B5001E30A2002208B4000A30A200CE
:1001A8002208B6004930B1040830B2044930B1051C
:1001B800F830B205F928DF284008A200A301230877
:1001C800003A0319E828DF282208003A0319802892
:1001D800013A03198028033A03199628013A0319AA
:1001E800AE28073A0319C628DF283208A3003108C9
:1001F800A200A209A309221C0B294408803A7E3ECA
:1002080003180B29B114FB30B105FF30B2053208D1
:10021800A3003108A200A209A309A21D1D294308B1
:10022800803A7E3E03181D293116DF30B105FF30B4
:10023800B2053208A3003108A200A209A309221FAF
:100248002F294208803A7E3E03182F29B117FF3024
:10025800B105FE30B2053208A3003108A200A20998
:10026800A309A31C41294108803A7E3E031841296D
:100278003215FF30B105F730B2054408803A7F3EA9
:1002880003184E293608A200A3012208A700230854
:10029800A80053294408A700A801A71BA8032708FA
:1002A800A2002208C4004308803A7F3E031864294C
:1002B8003508A200A3012208A9002308AA00692979
:1002C8004308A900AA01A91BAA032908A200220819
:1002D800C3004208803A7F3E03187A293408A200F6
:1002E800A3012208AB002308AC007F294208AB0019
:1002F800AC01AB1BAC032B08A2002208C2004108CA
:10030800803A7F3E031890293308A200A3012208EF
:10031800AD002308AE0095294108AD00AE01AD1B24
:10032800AE032D08A2002208C1004308A20022083B
:10033800F3004208A3002308F4004108A40024089D
:10034800F50044080A128A116E240800F5000130ED
:10035800F300730883120313B90764303906031DC9
:10036800B829F801F80ABE29C8303902031CBE2989
:10037800F801B9018801CB2A7508840083130008A5
:10038800013E84000A128A1100250A128A11FF3AD6
:1003980087007508083E8400001887147508093E10
:1003A8008400001CDB297803031DDB29870108145E
:1003B800BA01BA0A0800750A840083130008013ECE
:1003C80084000A128A1100250A128A11FF3A87004E
:1003D8007508083E8400001887177508093E8400D0
:1003E800001CFA297803031DFA29870188140230B2
:1003F800F3007308BA0008007508023E84008313EE
:100408000008013E84000A128A1100250A128A1186
:10041800FF3A87007508083E84000018871775089A
:10042800093E8400001C1C2A7803031D1C2A87012E
:1004380008150330F3007308BA0008007508033E76
:10044800840083130008013E84000A128A110025E3
:100458000A128A11FF3A87007508083E84000018BE
:1004680087177508093E8400001C3E2A7803031D7F
:100478003E2A870188150430F3007308BA00080083
:100488007508043E840083130008013E84000A12A4
:100498008A1100250A128A11FF3A87007508083E5A
:1004A8008400001887177508093E8400001C602A1C
:1004B8007803031D602A870108160530F3007308C6
:1004C800BA0008007508053E840083130008013E41
:1004D80084000A128A1100250A128A11FF3A87003D
:1004E8007508083E8400001887177508093E8400BF
:1004F800001C822A7803031D822A87018816063089
:10050800F3007308BA0008007508063E84008313D8
:100518000008013E84000A128A1100250A128A1175
:10052800FF3A87007508083E840000188717750889
:10053800093E8400001CA42A7803031DA42A87010D
:1005480008170730F3007308BA0008007508073E5B
:10055800840083130008013E84000A128A110025D2
:100568000A128A11FF3A87007508083E84000018AD
:1005780087177508093E8400001CC62A7803031DE6
:10058800C62A87018817BA010800BA0108003A0884
:10059800F300F4017408003A0319D32AC92A73082E
:1005A800003A0319C029013A0319DF29033A03194C
:1005B800002A013A0319222A073A0319442A013A60
:1005C8000319662A033A0319882A013A0319AA2A41
:1005D800C92A080083120313A0012008453E84009D
:1005E800831380010130F6007608A0070930200245
:1005F800031CF12ACE01CE0ACD01CD0A04303D06F6
:10060800031D792B3F18062B3F140A128A11D02597
:100618000A128A1145300A128A11AA210A128A116D
:100628007915F9157917FA1479300A128A119D2566
:100638000A128A1183120313BC010608F60004305B
:100648000310F60CFF3E031D242B7608FF3AF70033
:100658007708BC040F30F6007608BC043C08113E4D
:1006680084000A128A1100250A128A11F6007608F7
:10067800BD00BE01BE0A022B3F18402B3F140A12D0
:100688008A11D0250A128A1145300A128A11AA2124
:100698000A128A11F91679147917FA1479300A129C
:1006A8008A119D250A128A1183120313BC010608B8
:1006B800F60004300310F60CFF3E031D5E2B76088F
:1006C800FF3AF7007708BC040F30F6007608BC0440
:1006D8003C08113E84000A128A1100250A128A1168
:1006E800F6007608BD00BE01BE0A05303D06031DB2
:1006F800B72B402B3F187E2B3F140A128A11D025A6
:100708000A128A1145300A128A11AA210A128A117C
:100718007A147914F915FA1479300A128A119D2578
:100728000A128A1183120313BC010608F60004306A
:100738000310F60CFF3E031D9C2B7608FF3AF700CA
:100748007708BC040F30F6007608BC043C08113E5C
:1007580084000A128A1100250A128A11F600760806
:10076800BD00BE01BE0A06303D06031DF52B7E2BDB
:100778003F18BC2B3F140A128A11D0250A128A117D
:1007880045300A128A11AA210A128A11FA15F91596
:100798007917791479300A128A119D250A128A115B
:1007A80083120313BC010608F60004300310F60C8C
:1007B800FF3E031DDA2B7608FF3AF7007708BC04E2
:1007C8000F30F6007608BC043C08113E84000A127B
:1007D8008A1100250A128A11F6007608BD00BE01AA
:1007E800BE0A07303D06031D0800BC2B0A128A11F9
:1007F80026250A128A11043083120313AF002F082A
:10080800F3000530B0003008F400FA300A128A11FB
:10081800BC240A128A1101300A128A1176250A129A
:100828008A110A128A11CC250A128A118B1783128F
:1008380003133F143F181E2C3F140A128A11D025A7
:100848000A128A110A128A1131200A128A114530B5
:100858000A128A11AA210A128A1183120313320872
:10086800F4003108F3000A128A1145250A128A1188
:1008780079300A128A119D250A128A1183120313EC
:10088800BC010608AF0004300310AF0CFF3E031D87
:10089800482C2F08FF3AB0003008BC040F30AF00D6
:1008A8002F08BC053C08113E84000A128A11002555
:1008B8000A128A11AF002F08BD003D080319692CE0
:1008C8000A128A11EE220A128A1183120313CD0129
:1008D800CE011E2C83120313A000A1012108453E5E
:1008E8008400831380010130F6007608A1070830E0
:1008F80021020318862C722C0130F6007608C507F1
:100908000A30A0020A302002031C912C802C0130EE
:10091800F6007608C7070A30F3020A307302031C90
:100928009C2C8B2C0130F6007608C9070A30F4029B
:100938000A307402031CA72C962C0130F6007608A6
:10094800CB070A30F5020A3075020318A12C2008DB
:10095800F6007608C6007308F6007608C800740822
:10096800F6007608CA007508F6007608CC0008007C
:10097800F7007708FF3E831603139200FC30F5005A
:100988007508831203139205CE2C1214E12C9214CD
:10099800E12CCD2C7308F500F6017608003A03190E
:1009A800D62CCD2C7508013A0319E12C053A031908
:1009B800C92C143A0319CB2CCD2C1130740203180E
:1009C800FB2C8730F5007508920574080319080098
:1009D8007408F50002300310F50DFF3E031DEF2CDF
:1009E8000310750DF83EF600760892040800FB2CFB
:100A000005308A000408840A820700343F34063423
:100A10005B344F3466346D347D3407347F346F3447
:100A200077347C3458345E3479347134003404348F
:100A300005340534063406340634063407340734E6
:100A40000734073407340734073407348316031395
:100A50008701F03086008501880183120313850128
:100A600086018316031789017F30F300730883160C
:100A700003138105F0309500831203138701880169
:100A80006530831603138F00080073187914F31868
:100A9000F91473197915F319F915731A7916F31AEC
:100AA000F916731B7917F31BF91774187A14F418D5
:100AB000FA1474197A15F41D0800FA1508000A12C0
:100AC0008A11BD250A128A11003A03196F2D0A12E4
:100AD0008A11C5250A128A11831203133F10720866
:100AE0008A00710E8300FE0E7E0E0900F400FD30B8
:100AF000F3007308831203138C0574080319842D03
:100B0000831603138C148A2DFD30F30073088316AB
:100B100003138C050B1708007E088A007F088200EB
:100B20008C250A128A118000840A04087D060319A4
:100B30000034FF0A0319FE0A902DF50075088400A1
:100B40000008831203138500750884000008F30071
:100B5000840A0008F40074088600080001341E347A
:100B600014340A340A3401340234033404340234B1
:100B700004340234043400340034831203138C1C14
:100B8000C32D0130080000300800FD30F00070086F
:100B9000831203138C050800831203131215080037
:060BA000F901FA01080052
:04400E00F4EFFFFFCD
:00000001FF
